{
  "_format": "hh-sol-artifact-1",
  "contractName": "Domains",
  "sourceName": "contracts/Domains.sol",
  "abi": [
    {
      "inputs": [
        {
          "internalType": "string",
          "name": "_tld",
          "type": "string"
        }
      ],
      "stateMutability": "payable",
      "type": "constructor"
    },
    {
      "anonymous": false,
      "inputs": [
        {
          "indexed": true,
          "internalType": "address",
          "name": "owner",
          "type": "address"
        },
        {
          "indexed": true,
          "internalType": "address",
          "name": "approved",
          "type": "address"
        },
        {
          "indexed": true,
          "internalType": "uint256",
          "name": "tokenId",
          "type": "uint256"
        }
      ],
      "name": "Approval",
      "type": "event"
    },
    {
      "anonymous": false,
      "inputs": [
        {
          "indexed": true,
          "internalType": "address",
          "name": "owner",
          "type": "address"
        },
        {
          "indexed": true,
          "internalType": "address",
          "name": "operator",
          "type": "address"
        },
        {
          "indexed": false,
          "internalType": "bool",
          "name": "approved",
          "type": "bool"
        }
      ],
      "name": "ApprovalForAll",
      "type": "event"
    },
    {
      "anonymous": false,
      "inputs": [
        {
          "indexed": true,
          "internalType": "address",
          "name": "from",
          "type": "address"
        },
        {
          "indexed": true,
          "internalType": "address",
          "name": "to",
          "type": "address"
        },
        {
          "indexed": true,
          "internalType": "uint256",
          "name": "tokenId",
          "type": "uint256"
        }
      ],
      "name": "Transfer",
      "type": "event"
    },
    {
      "inputs": [
        {
          "internalType": "address",
          "name": "to",
          "type": "address"
        },
        {
          "internalType": "uint256",
          "name": "tokenId",
          "type": "uint256"
        }
      ],
      "name": "approve",
      "outputs": [],
      "stateMutability": "nonpayable",
      "type": "function"
    },
    {
      "inputs": [
        {
          "internalType": "address",
          "name": "owner",
          "type": "address"
        }
      ],
      "name": "balanceOf",
      "outputs": [
        {
          "internalType": "uint256",
          "name": "",
          "type": "uint256"
        }
      ],
      "stateMutability": "view",
      "type": "function"
    },
    {
      "inputs": [
        {
          "internalType": "string",
          "name": "",
          "type": "string"
        }
      ],
      "name": "domains",
      "outputs": [
        {
          "internalType": "address",
          "name": "",
          "type": "address"
        }
      ],
      "stateMutability": "view",
      "type": "function"
    },
    {
      "inputs": [
        {
          "internalType": "string",
          "name": "name",
          "type": "string"
        }
      ],
      "name": "getAddress",
      "outputs": [
        {
          "internalType": "address",
          "name": "",
          "type": "address"
        }
      ],
      "stateMutability": "view",
      "type": "function"
    },
    {
      "inputs": [
        {
          "internalType": "uint256",
          "name": "tokenId",
          "type": "uint256"
        }
      ],
      "name": "getApproved",
      "outputs": [
        {
          "internalType": "address",
          "name": "",
          "type": "address"
        }
      ],
      "stateMutability": "view",
      "type": "function"
    },
    {
      "inputs": [
        {
          "internalType": "string",
          "name": "name",
          "type": "string"
        }
      ],
      "name": "getRecord",
      "outputs": [
        {
          "internalType": "string",
          "name": "",
          "type": "string"
        }
      ],
      "stateMutability": "view",
      "type": "function"
    },
    {
      "inputs": [
        {
          "internalType": "address",
          "name": "owner",
          "type": "address"
        },
        {
          "internalType": "address",
          "name": "operator",
          "type": "address"
        }
      ],
      "name": "isApprovedForAll",
      "outputs": [
        {
          "internalType": "bool",
          "name": "",
          "type": "bool"
        }
      ],
      "stateMutability": "view",
      "type": "function"
    },
    {
      "inputs": [],
      "name": "name",
      "outputs": [
        {
          "internalType": "string",
          "name": "",
          "type": "string"
        }
      ],
      "stateMutability": "view",
      "type": "function"
    },
    {
      "inputs": [
        {
          "internalType": "uint256",
          "name": "tokenId",
          "type": "uint256"
        }
      ],
      "name": "ownerOf",
      "outputs": [
        {
          "internalType": "address",
          "name": "",
          "type": "address"
        }
      ],
      "stateMutability": "view",
      "type": "function"
    },
    {
      "inputs": [
        {
          "internalType": "string",
          "name": "name",
          "type": "string"
        }
      ],
      "name": "price",
      "outputs": [
        {
          "internalType": "uint256",
          "name": "",
          "type": "uint256"
        }
      ],
      "stateMutability": "pure",
      "type": "function"
    },
    {
      "inputs": [
        {
          "internalType": "string",
          "name": "",
          "type": "string"
        }
      ],
      "name": "records",
      "outputs": [
        {
          "internalType": "string",
          "name": "",
          "type": "string"
        }
      ],
      "stateMutability": "view",
      "type": "function"
    },
    {
      "inputs": [
        {
          "internalType": "string",
          "name": "name",
          "type": "string"
        }
      ],
      "name": "register",
      "outputs": [],
      "stateMutability": "payable",
      "type": "function"
    },
    {
      "inputs": [
        {
          "internalType": "address",
          "name": "from",
          "type": "address"
        },
        {
          "internalType": "address",
          "name": "to",
          "type": "address"
        },
        {
          "internalType": "uint256",
          "name": "tokenId",
          "type": "uint256"
        }
      ],
      "name": "safeTransferFrom",
      "outputs": [],
      "stateMutability": "nonpayable",
      "type": "function"
    },
    {
      "inputs": [
        {
          "internalType": "address",
          "name": "from",
          "type": "address"
        },
        {
          "internalType": "address",
          "name": "to",
          "type": "address"
        },
        {
          "internalType": "uint256",
          "name": "tokenId",
          "type": "uint256"
        },
        {
          "internalType": "bytes",
          "name": "_data",
          "type": "bytes"
        }
      ],
      "name": "safeTransferFrom",
      "outputs": [],
      "stateMutability": "nonpayable",
      "type": "function"
    },
    {
      "inputs": [
        {
          "internalType": "address",
          "name": "operator",
          "type": "address"
        },
        {
          "internalType": "bool",
          "name": "approved",
          "type": "bool"
        }
      ],
      "name": "setApprovalForAll",
      "outputs": [],
      "stateMutability": "nonpayable",
      "type": "function"
    },
    {
      "inputs": [
        {
          "internalType": "string",
          "name": "name",
          "type": "string"
        },
        {
          "internalType": "string",
          "name": "record",
          "type": "string"
        }
      ],
      "name": "setRecord",
      "outputs": [],
      "stateMutability": "nonpayable",
      "type": "function"
    },
    {
      "inputs": [
        {
          "internalType": "bytes4",
          "name": "interfaceId",
          "type": "bytes4"
        }
      ],
      "name": "supportsInterface",
      "outputs": [
        {
          "internalType": "bool",
          "name": "",
          "type": "bool"
        }
      ],
      "stateMutability": "view",
      "type": "function"
    },
    {
      "inputs": [],
      "name": "symbol",
      "outputs": [
        {
          "internalType": "string",
          "name": "",
          "type": "string"
        }
      ],
      "stateMutability": "view",
      "type": "function"
    },
    {
      "inputs": [],
      "name": "tld",
      "outputs": [
        {
          "internalType": "string",
          "name": "",
          "type": "string"
        }
      ],
      "stateMutability": "view",
      "type": "function"
    },
    {
      "inputs": [
        {
          "internalType": "uint256",
          "name": "tokenId",
          "type": "uint256"
        }
      ],
      "name": "tokenURI",
      "outputs": [
        {
          "internalType": "string",
          "name": "",
          "type": "string"
        }
      ],
      "stateMutability": "view",
      "type": "function"
    },
    {
      "inputs": [
        {
          "internalType": "address",
          "name": "from",
          "type": "address"
        },
        {
          "internalType": "address",
          "name": "to",
          "type": "address"
        },
        {
          "internalType": "uint256",
          "name": "tokenId",
          "type": "uint256"
        }
      ],
      "name": "transferFrom",
      "outputs": [],
      "stateMutability": "nonpayable",
      "type": "function"
    }
  ],
  "bytecode": "0x6080604052604051806108a0016040528061086b8152602001620049e061086b9139600990805190602001906200003892919062000287565b506040518060400160405280600d81526020017f3c2f746578743e3c2f7376673e00000000000000000000000000000000000000815250600a90805190602001906200008692919062000287565b506040516200524b3803806200524b8339818101604052810190620000ac9190620004d4565b6040518060400160405280601f81526020017f44656d6f6e20536c6179657220436f727073204e616d652053657276696365008152506040518060400160405280600381526020017f445343000000000000000000000000000000000000000000000000000000000081525081600090805190602001906200013092919062000287565b5080600190805190602001906200014992919062000287565b50505080600890805190602001906200016492919062000287565b50620001b16040518060400160405280601881526020017f2573206e616d652073657276696365206465706c6f796564000000000000000081525082620001b860201b620015421760201c565b5062000622565b6200025a8282604051602401620001d192919062000582565b6040516020818303038152906040527f4b5c4277000000000000000000000000000000000000000000000000000000007bffffffffffffffffffffffffffffffffffffffffffffffffffffffff19166020820180517bffffffffffffffffffffffffffffffffffffffffffffffffffffffff83818316178352505050506200025e60201b60201c565b5050565b60008151905060006a636f6e736f6c652e6c6f679050602083016000808483855afa5050505050565b8280546200029590620005ec565b90600052602060002090601f016020900481019282620002b9576000855562000305565b82601f10620002d457805160ff191683800117855562000305565b8280016001018555821562000305579182015b8281111562000304578251825591602001919060010190620002e7565b5b50905062000314919062000318565b5090565b5b808211156200033357600081600090555060010162000319565b5090565b6000604051905090565b600080fd5b600080fd5b600080fd5b600080fd5b6000601f19601f8301169050919050565b7f4e487b7100000000000000000000000000000000000000000000000000000000600052604160045260246000fd5b620003a08262000355565b810181811067ffffffffffffffff82111715620003c257620003c162000366565b5b80604052505050565b6000620003d762000337565b9050620003e5828262000395565b919050565b600067ffffffffffffffff82111562000408576200040762000366565b5b620004138262000355565b9050602081019050919050565b60005b838110156200044057808201518184015260208101905062000423565b8381111562000450576000848401525b50505050565b60006200046d6200046784620003ea565b620003cb565b9050828152602081018484840111156200048c576200048b62000350565b5b6200049984828562000420565b509392505050565b600082601f830112620004b957620004b86200034b565b5b8151620004cb84826020860162000456565b91505092915050565b600060208284031215620004ed57620004ec62000341565b5b600082015167ffffffffffffffff8111156200050e576200050d62000346565b5b6200051c84828501620004a1565b91505092915050565b600081519050919050565b600082825260208201905092915050565b60006200054e8262000525565b6200055a818562000530565b93506200056c81856020860162000420565b620005778162000355565b840191505092915050565b600060408201905081810360008301526200059e818562000541565b90508181036020830152620005b4818462000541565b90509392505050565b7f4e487b7100000000000000000000000000000000000000000000000000000000600052602260045260246000fd5b600060028204905060018216806200060557607f821691505b602082108114156200061c576200061b620005bd565b5b50919050565b6143ae80620006326000396000f3fe60806040526004361061012a5760003560e01c80636352211e116100ab578063bf40fac11161006f578063bf40fac114610428578063c1880a9814610465578063c87b56dd1461048e578063e985e9c5146104cb578063f2c298be14610508578063fe2c6198146105245761012a565b80636352211e1461033157806370a082311461036e57806395d89b41146103ab578063a22cb465146103d6578063b88d4fde146103ff5761012a565b806323b872dd116100f257806323b872dd1461023a57806326449235146102635780632d551432146102a057806342842e0e146102cb578063541e771d146102f45761012a565b806301ffc9a71461012f57806306fdde031461016c578063081812fc14610197578063095ea7b3146101d457806311dd8845146101fd575b600080fd5b34801561013b57600080fd5b5061015660048036038101906101519190612988565b610561565b60405161016391906129d0565b60405180910390f35b34801561017857600080fd5b50610181610643565b60405161018e9190612a84565b60405180910390f35b3480156101a357600080fd5b506101be60048036038101906101b99190612adc565b6106d5565b6040516101cb9190612b4a565b60405180910390f35b3480156101e057600080fd5b506101fb60048036038101906101f69190612b91565b61075a565b005b34801561020957600080fd5b50610224600480360381019061021f9190612c36565b610872565b6040516102319190612a84565b60405180910390f35b34801561024657600080fd5b50610261600480360381019061025c9190612c83565b610925565b005b34801561026f57600080fd5b5061028a60048036038101906102859190612e06565b610985565b6040516102979190612b4a565b60405180910390f35b3480156102ac57600080fd5b506102b56109ce565b6040516102c29190612a84565b60405180910390f35b3480156102d757600080fd5b506102f260048036038101906102ed9190612c83565b610a5c565b005b34801561030057600080fd5b5061031b60048036038101906103169190612e06565b610a7c565b6040516103289190612a84565b60405180910390f35b34801561033d57600080fd5b5061035860048036038101906103539190612adc565b610b32565b6040516103659190612b4a565b60405180910390f35b34801561037a57600080fd5b5061039560048036038101906103909190612e4f565b610be4565b6040516103a29190612e8b565b60405180910390f35b3480156103b757600080fd5b506103c0610c9c565b6040516103cd9190612a84565b60405180910390f35b3480156103e257600080fd5b506103fd60048036038101906103f89190612ed2565b610d2e565b005b34801561040b57600080fd5b5061042660048036038101906104219190612fb3565b610d44565b005b34801561043457600080fd5b5061044f600480360381019061044a9190612c36565b610da6565b60405161045c9190612b4a565b60405180910390f35b34801561047157600080fd5b5061048c60048036038101906104879190613036565b610df1565b005b34801561049a57600080fd5b506104b560048036038101906104b09190612adc565b610ed5565b6040516104c29190612a84565b60405180910390f35b3480156104d757600080fd5b506104f260048036038101906104ed91906130b7565b611027565b6040516104ff91906129d0565b60405180910390f35b610522600480360381019061051d9190612c36565b6110bb565b005b34801561053057600080fd5b5061054b60048036038101906105469190612c36565b61149c565b6040516105589190612e8b565b60405180910390f35b60007f80ac58cd000000000000000000000000000000000000000000000000000000007bffffffffffffffffffffffffffffffffffffffffffffffffffffffff1916827bffffffffffffffffffffffffffffffffffffffffffffffffffffffff1916148061062c57507f5b5e139f000000000000000000000000000000000000000000000000000000007bffffffffffffffffffffffffffffffffffffffffffffffffffffffff1916827bffffffffffffffffffffffffffffffffffffffffffffffffffffffff1916145b8061063c575061063b826115de565b5b9050919050565b60606000805461065290613126565b80601f016020809104026020016040519081016040528092919081815260200182805461067e90613126565b80156106cb5780601f106106a0576101008083540402835291602001916106cb565b820191906000526020600020905b8154815290600101906020018083116106ae57829003601f168201915b5050505050905090565b60006106e082611648565b61071f576040517f08c379a0000000000000000000000000000000000000000000000000000000008152600401610716906131ca565b60405180910390fd5b6004600083815260200190815260200160002060009054906101000a900473ffffffffffffffffffffffffffffffffffffffff169050919050565b600061076582610b32565b90508073ffffffffffffffffffffffffffffffffffffffff168373ffffffffffffffffffffffffffffffffffffffff1614156107d6576040517f08c379a00000000000000000000000000000000000000000000000000000000081526004016107cd9061325c565b60405180910390fd5b8073ffffffffffffffffffffffffffffffffffffffff166107f56116b4565b73ffffffffffffffffffffffffffffffffffffffff16148061082457506108238161081e6116b4565b611027565b5b610863576040517f08c379a000000000000000000000000000000000000000000000000000000000815260040161085a906132ee565b60405180910390fd5b61086d83836116bc565b505050565b6060600c838360405161088692919061333e565b9081526020016040518091039020805461089f90613126565b80601f01602080910402602001604051908101604052809291908181526020018280546108cb90613126565b80156109185780601f106108ed57610100808354040283529160200191610918565b820191906000526020600020905b8154815290600101906020018083116108fb57829003601f168201915b5050505050905092915050565b6109366109306116b4565b82611775565b610975576040517f08c379a000000000000000000000000000000000000000000000000000000000815260040161096c906133c9565b60405180910390fd5b610980838383611853565b505050565b600b818051602081018201805184825260208301602085012081835280955050505050506000915054906101000a900473ffffffffffffffffffffffffffffffffffffffff1681565b600880546109db90613126565b80601f0160208091040260200160405190810160405280929190818152602001828054610a0790613126565b8015610a545780601f10610a2957610100808354040283529160200191610a54565b820191906000526020600020905b815481529060010190602001808311610a3757829003601f168201915b505050505081565b610a7783838360405180602001604052806000815250610d44565b505050565b600c818051602081018201805184825260208301602085012081835280955050505050506000915090508054610ab190613126565b80601f0160208091040260200160405190810160405280929190818152602001828054610add90613126565b8015610b2a5780601f10610aff57610100808354040283529160200191610b2a565b820191906000526020600020905b815481529060010190602001808311610b0d57829003601f168201915b505050505081565b6000806002600084815260200190815260200160002060009054906101000a900473ffffffffffffffffffffffffffffffffffffffff169050600073ffffffffffffffffffffffffffffffffffffffff168173ffffffffffffffffffffffffffffffffffffffff161415610bdb576040517f08c379a0000000000000000000000000000000000000000000000000000000008152600401610bd29061345b565b60405180910390fd5b80915050919050565b60008073ffffffffffffffffffffffffffffffffffffffff168273ffffffffffffffffffffffffffffffffffffffff161415610c55576040517f08c379a0000000000000000000000000000000000000000000000000000000008152600401610c4c906134ed565b60405180910390fd5b600360008373ffffffffffffffffffffffffffffffffffffffff1673ffffffffffffffffffffffffffffffffffffffff168152602001908152602001600020549050919050565b606060018054610cab90613126565b80601f0160208091040260200160405190810160405280929190818152602001828054610cd790613126565b8015610d245780601f10610cf957610100808354040283529160200191610d24565b820191906000526020600020905b815481529060010190602001808311610d0757829003601f168201915b5050505050905090565b610d40610d396116b4565b8383611aba565b5050565b610d55610d4f6116b4565b83611775565b610d94576040517f08c379a0000000000000000000000000000000000000000000000000000000008152600401610d8b906133c9565b60405180910390fd5b610da084848484611c27565b50505050565b6000600b8383604051610dba92919061333e565b908152602001604051809103902060009054906101000a900473ffffffffffffffffffffffffffffffffffffffff16905092915050565b3373ffffffffffffffffffffffffffffffffffffffff16600b8585604051610e1a92919061333e565b908152602001604051809103902060009054906101000a900473ffffffffffffffffffffffffffffffffffffffff1673ffffffffffffffffffffffffffffffffffffffff1614610e9f576040517f08c379a0000000000000000000000000000000000000000000000000000000008152600401610e9690613559565b60405180910390fd5b8181600c8686604051610eb392919061333e565b90815260200160405180910390209190610ece9291906127f3565b5050505050565b6060610ee082611648565b610f1f576040517f08c379a0000000000000000000000000000000000000000000000000000000008152600401610f16906135eb565b60405180910390fd5b6000600660008481526020019081526020016000208054610f3f90613126565b80601f0160208091040260200160405190810160405280929190818152602001828054610f6b90613126565b8015610fb85780601f10610f8d57610100808354040283529160200191610fb8565b820191906000526020600020905b815481529060010190602001808311610f9b57829003601f168201915b505050505090506000610fc9611c83565b9050600081511415610fdf578192505050611022565b600082511115611014578082604051602001610ffc92919061363c565b60405160208183030381529060405292505050611022565b61101d84611c9a565b925050505b919050565b6000600560008473ffffffffffffffffffffffffffffffffffffffff1673ffffffffffffffffffffffffffffffffffffffff16815260200190815260200160002060008373ffffffffffffffffffffffffffffffffffffffff1673ffffffffffffffffffffffffffffffffffffffff16815260200190815260200160002060009054906101000a900460ff16905092915050565b600073ffffffffffffffffffffffffffffffffffffffff16600b83836040516110e592919061333e565b908152602001604051809103902060009054906101000a900473ffffffffffffffffffffffffffffffffffffffff1673ffffffffffffffffffffffffffffffffffffffff161461113457600080fd5b6000611140838361149c565b905080341015611185576040517f08c379a000000000000000000000000000000000000000000000000000000000815260040161117c906136ac565b60405180910390fd5b60008383600860405160200161119d939291906137ac565b60405160208183030381529060405290506000600982600a6040516020016111c7939291906137dd565b604051602081830303815290604052905060006111e46007611d41565b9050600061123587878080601f016020809104026020016040519081016040528093929190818152602001838380828437600081840152601f19601f82011690508083019250505050505050611d4f565b9050600061124282611f04565b90506113366040518060600160405280603181526020016142cf6031913989898080601f016020809104026020016040519081016040528093929190818152602001838380828437600081840152601f19601f82011690508083019250505050505050600880546112b290613126565b80601f01602080910402602001604051908101604052809291908181526020018280546112de90613126565b801561132b5780601f106113005761010080835404028352916020019161132b565b820191906000526020600020905b81548152906001019060200180831161130e57829003601f168201915b505050505086612065565b600061136c8661134587612107565b846040516020016113589392919061398a565b604051602081830303815290604052612107565b90506000816040516020016113819190613a33565b60405160208183030381529060405290506113b36040518060600160405280603981526020016142966039913961229f565b6113f26040518060400160405280600e81526020017f46696e616c20746f6b656e55524900000000000000000000000000000000000081525082611542565b6114136040518060600160405280603981526020016143006039913961229f565b61141d3386612338565b6114278582612356565b33600b8b8b60405161143a92919061333e565b908152602001604051809103902060006101000a81548173ffffffffffffffffffffffffffffffffffffffff021916908373ffffffffffffffffffffffffffffffffffffffff16021790555061149060076123ca565b50505050505050505050565b6000806114ec84848080601f016020809104026020016040519081016040528093929190818152602001838380828437600081840152601f19601f82011690508083019250505050505050611d4f565b9050600081116114fb57600080fd5b6003811415611515576706f05b59d3b2000091505061153c565b600481141561152f57670429d069189e000091505061153c565b67016345785d8a00009150505b92915050565b6115da8282604051602401611558929190613a55565b6040516020818303038152906040527f4b5c4277000000000000000000000000000000000000000000000000000000007bffffffffffffffffffffffffffffffffffffffffffffffffffffffff19166020820180517bffffffffffffffffffffffffffffffffffffffffffffffffffffffff83818316178352505050506123e0565b5050565b60007f01ffc9a7000000000000000000000000000000000000000000000000000000007bffffffffffffffffffffffffffffffffffffffffffffffffffffffff1916827bffffffffffffffffffffffffffffffffffffffffffffffffffffffff1916149050919050565b60008073ffffffffffffffffffffffffffffffffffffffff166002600084815260200190815260200160002060009054906101000a900473ffffffffffffffffffffffffffffffffffffffff1673ffffffffffffffffffffffffffffffffffffffff1614159050919050565b600033905090565b816004600083815260200190815260200160002060006101000a81548173ffffffffffffffffffffffffffffffffffffffff021916908373ffffffffffffffffffffffffffffffffffffffff160217905550808273ffffffffffffffffffffffffffffffffffffffff1661172f83610b32565b73ffffffffffffffffffffffffffffffffffffffff167f8c5be1e5ebec7d5bd14f71427d1e84f3dd0314c0f7b2291e5b200ac8c7c3b92560405160405180910390a45050565b600061178082611648565b6117bf576040517f08c379a00000000000000000000000000000000000000000000000000000000081526004016117b690613afe565b60405180910390fd5b60006117ca83610b32565b90508073ffffffffffffffffffffffffffffffffffffffff168473ffffffffffffffffffffffffffffffffffffffff16148061183957508373ffffffffffffffffffffffffffffffffffffffff16611821846106d5565b73ffffffffffffffffffffffffffffffffffffffff16145b8061184a57506118498185611027565b5b91505092915050565b8273ffffffffffffffffffffffffffffffffffffffff1661187382610b32565b73ffffffffffffffffffffffffffffffffffffffff16146118c9576040517f08c379a00000000000000000000000000000000000000000000000000000000081526004016118c090613b90565b60405180910390fd5b600073ffffffffffffffffffffffffffffffffffffffff168273ffffffffffffffffffffffffffffffffffffffff161415611939576040517f08c379a000000000000000000000000000000000000000000000000000000000815260040161193090613c22565b60405180910390fd5b611944838383612409565b61194f6000826116bc565b6001600360008573ffffffffffffffffffffffffffffffffffffffff1673ffffffffffffffffffffffffffffffffffffffff168152602001908152602001600020600082825461199f9190613c71565b925050819055506001600360008473ffffffffffffffffffffffffffffffffffffffff1673ffffffffffffffffffffffffffffffffffffffff16815260200190815260200160002060008282546119f69190613ca5565b92505081905550816002600083815260200190815260200160002060006101000a81548173ffffffffffffffffffffffffffffffffffffffff021916908373ffffffffffffffffffffffffffffffffffffffff160217905550808273ffffffffffffffffffffffffffffffffffffffff168473ffffffffffffffffffffffffffffffffffffffff167fddf252ad1be2c89b69c2b068fc378daa952ba7f163c4a11628f55a4df523b3ef60405160405180910390a4611ab583838361240e565b505050565b8173ffffffffffffffffffffffffffffffffffffffff168373ffffffffffffffffffffffffffffffffffffffff161415611b29576040517f08c379a0000000000000000000000000000000000000000000000000000000008152600401611b2090613d47565b60405180910390fd5b80600560008573ffffffffffffffffffffffffffffffffffffffff1673ffffffffffffffffffffffffffffffffffffffff16815260200190815260200160002060008473ffffffffffffffffffffffffffffffffffffffff1673ffffffffffffffffffffffffffffffffffffffff16815260200190815260200160002060006101000a81548160ff0219169083151502179055508173ffffffffffffffffffffffffffffffffffffffff168373ffffffffffffffffffffffffffffffffffffffff167f17307eab39ab6107e8899845ad3d59bd9653f200f220920489ca2b5937696c3183604051611c1a91906129d0565b60405180910390a3505050565b611c32848484611853565b611c3e84848484612413565b611c7d576040517f08c379a0000000000000000000000000000000000000000000000000000000008152600401611c7490613dd9565b60405180910390fd5b50505050565b606060405180602001604052806000815250905090565b6060611ca582611648565b611ce4576040517f08c379a0000000000000000000000000000000000000000000000000000000008152600401611cdb90613e6b565b60405180910390fd5b6000611cee611c83565b90506000815111611d0e5760405180602001604052806000815250611d39565b80611d1884611f04565b604051602001611d2992919061363c565b6040516020818303038152906040525b915050919050565b600081600001549050919050565b60008060008084519050600092505b80821015611ef9576000858381518110611d7b57611d7a613e8b565b5b602001015160f81c60f81b9050608060f81b817effffffffffffffffffffffffffffffffffffffffffffffffffffffffffffff19161015611dca57600183611dc39190613ca5565b9250611ee5565b60e060f81b817effffffffffffffffffffffffffffffffffffffffffffffffffffffffffffff19161015611e0c57600283611e059190613ca5565b9250611ee4565b60f060f81b817effffffffffffffffffffffffffffffffffffffffffffffffffffffffffffff19161015611e4e57600383611e479190613ca5565b9250611ee3565b60f8801b817effffffffffffffffffffffffffffffffffffffffffffffffffffffffffffff19161015611e8f57600483611e889190613ca5565b9250611ee2565b60fc60f81b817effffffffffffffffffffffffffffffffffffffffffffffffffffffffffffff19161015611ed157600583611eca9190613ca5565b9250611ee1565b600683611ede9190613ca5565b92505b5b5b5b5b508280611ef190613eba565b935050611d5e565b829350505050919050565b60606000821415611f4c576040518060400160405280600181526020017f30000000000000000000000000000000000000000000000000000000000000008152509050612060565b600082905060005b60008214611f7e578080611f6790613eba565b915050600a82611f779190613f32565b9150611f54565b60008167ffffffffffffffff811115611f9a57611f99612cdb565b5b6040519080825280601f01601f191660200182016040528015611fcc5781602001600182028036833780820191505090505b5090505b6000851461205957600182611fe59190613c71565b9150600a85611ff49190613f63565b60306120009190613ca5565b60f81b81838151811061201657612015613e8b565b5b60200101907effffffffffffffffffffffffffffffffffffffffffffffffffffffffffffff1916908160001a905350600a856120529190613f32565b9450611fd0565b8093505050505b919050565b6121018484848460405160240161207f9493929190613f94565b6040516020818303038152906040527f9fd009f5000000000000000000000000000000000000000000000000000000007bffffffffffffffffffffffffffffffffffffffffffffffffffffffff19166020820180517bffffffffffffffffffffffffffffffffffffffffffffffffffffffff83818316178352505050506123e0565b50505050565b60606000825190506000811415612130576040518060200160405280600081525091505061229a565b600060036002836121419190613ca5565b61214b9190613f32565b60046121579190613fee565b905060006020826121689190613ca5565b67ffffffffffffffff81111561218157612180612cdb565b5b6040519080825280601f01601f1916602001820160405280156121b35781602001600182028036833780820191505090505b5090506000604051806060016040528060408152602001614339604091399050600181016020830160005b868110156122575760038101905062ffffff818a015116603f8160121c168401518060081b905060ff603f83600c1c1686015116810190508060081b905060ff603f8360061c1686015116810190508060081b905060ff603f831686015116810190508060e01b905080845260048401935050506121de565b50600386066001811461227157600281146122815761228c565b613d3d60f01b600283035261228c565b603d60f81b60018303525b508484525050819450505050505b919050565b612335816040516024016122b39190612a84565b6040516020818303038152906040527f41304fac000000000000000000000000000000000000000000000000000000007bffffffffffffffffffffffffffffffffffffffffffffffffffffffff19166020820180517bffffffffffffffffffffffffffffffffffffffffffffffffffffffff83818316178352505050506123e0565b50565b61235282826040518060200160405280600081525061259b565b5050565b61235f82611648565b61239e576040517f08c379a0000000000000000000000000000000000000000000000000000000008152600401612395906140ba565b60405180910390fd5b806006600084815260200190815260200160002090805190602001906123c5929190612879565b505050565b6001816000016000828254019250508190555050565b60008151905060006a636f6e736f6c652e6c6f679050602083016000808483855afa5050505050565b505050565b505050565b60006124348473ffffffffffffffffffffffffffffffffffffffff166125f6565b1561258e578373ffffffffffffffffffffffffffffffffffffffff1663150b7a0261245d6116b4565b8786866040518563ffffffff1660e01b815260040161247f949392919061412f565b6020604051808303816000875af19250505080156124bb57506040513d601f19601f820116820180604052508101906124b89190614190565b60015b61253e573d80600081146124eb576040519150601f19603f3d011682016040523d82523d6000602084013e6124f0565b606091505b50600081511415612536576040517f08c379a000000000000000000000000000000000000000000000000000000000815260040161252d90613dd9565b60405180910390fd5b805181602001fd5b63150b7a0260e01b7bffffffffffffffffffffffffffffffffffffffffffffffffffffffff1916817bffffffffffffffffffffffffffffffffffffffffffffffffffffffff191614915050612593565b600190505b949350505050565b6125a58383612619565b6125b26000848484612413565b6125f1576040517f08c379a00000000000000000000000000000000000000000000000000000000081526004016125e890613dd9565b60405180910390fd5b505050565b6000808273ffffffffffffffffffffffffffffffffffffffff163b119050919050565b600073ffffffffffffffffffffffffffffffffffffffff168273ffffffffffffffffffffffffffffffffffffffff161415612689576040517f08c379a000000000000000000000000000000000000000000000000000000000815260040161268090614209565b60405180910390fd5b61269281611648565b156126d2576040517f08c379a00000000000000000000000000000000000000000000000000000000081526004016126c990614275565b60405180910390fd5b6126de60008383612409565b6001600360008473ffffffffffffffffffffffffffffffffffffffff1673ffffffffffffffffffffffffffffffffffffffff168152602001908152602001600020600082825461272e9190613ca5565b92505081905550816002600083815260200190815260200160002060006101000a81548173ffffffffffffffffffffffffffffffffffffffff021916908373ffffffffffffffffffffffffffffffffffffffff160217905550808273ffffffffffffffffffffffffffffffffffffffff16600073ffffffffffffffffffffffffffffffffffffffff167fddf252ad1be2c89b69c2b068fc378daa952ba7f163c4a11628f55a4df523b3ef60405160405180910390a46127ef6000838361240e565b5050565b8280546127ff90613126565b90600052602060002090601f0160209004810192826128215760008555612868565b82601f1061283a57803560ff1916838001178555612868565b82800160010185558215612868579182015b8281111561286757823582559160200191906001019061284c565b5b50905061287591906128ff565b5090565b82805461288590613126565b90600052602060002090601f0160209004810192826128a757600085556128ee565b82601f106128c057805160ff19168380011785556128ee565b828001600101855582156128ee579182015b828111156128ed5782518255916020019190600101906128d2565b5b5090506128fb91906128ff565b5090565b5b80821115612918576000816000905550600101612900565b5090565b6000604051905090565b600080fd5b600080fd5b60007fffffffff0000000000000000000000000000000000000000000000000000000082169050919050565b61296581612930565b811461297057600080fd5b50565b6000813590506129828161295c565b92915050565b60006020828403121561299e5761299d612926565b5b60006129ac84828501612973565b91505092915050565b60008115159050919050565b6129ca816129b5565b82525050565b60006020820190506129e560008301846129c1565b92915050565b600081519050919050565b600082825260208201905092915050565b60005b83811015612a25578082015181840152602081019050612a0a565b83811115612a34576000848401525b50505050565b6000601f19601f8301169050919050565b6000612a56826129eb565b612a6081856129f6565b9350612a70818560208601612a07565b612a7981612a3a565b840191505092915050565b60006020820190508181036000830152612a9e8184612a4b565b905092915050565b6000819050919050565b612ab981612aa6565b8114612ac457600080fd5b50565b600081359050612ad681612ab0565b92915050565b600060208284031215612af257612af1612926565b5b6000612b0084828501612ac7565b91505092915050565b600073ffffffffffffffffffffffffffffffffffffffff82169050919050565b6000612b3482612b09565b9050919050565b612b4481612b29565b82525050565b6000602082019050612b5f6000830184612b3b565b92915050565b612b6e81612b29565b8114612b7957600080fd5b50565b600081359050612b8b81612b65565b92915050565b60008060408385031215612ba857612ba7612926565b5b6000612bb685828601612b7c565b9250506020612bc785828601612ac7565b9150509250929050565b600080fd5b600080fd5b600080fd5b60008083601f840112612bf657612bf5612bd1565b5b8235905067ffffffffffffffff811115612c1357612c12612bd6565b5b602083019150836001820283011115612c2f57612c2e612bdb565b5b9250929050565b60008060208385031215612c4d57612c4c612926565b5b600083013567ffffffffffffffff811115612c6b57612c6a61292b565b5b612c7785828601612be0565b92509250509250929050565b600080600060608486031215612c9c57612c9b612926565b5b6000612caa86828701612b7c565b9350506020612cbb86828701612b7c565b9250506040612ccc86828701612ac7565b9150509250925092565b600080fd5b7f4e487b7100000000000000000000000000000000000000000000000000000000600052604160045260246000fd5b612d1382612a3a565b810181811067ffffffffffffffff82111715612d3257612d31612cdb565b5b80604052505050565b6000612d4561291c565b9050612d518282612d0a565b919050565b600067ffffffffffffffff821115612d7157612d70612cdb565b5b612d7a82612a3a565b9050602081019050919050565b82818337600083830152505050565b6000612da9612da484612d56565b612d3b565b905082815260208101848484011115612dc557612dc4612cd6565b5b612dd0848285612d87565b509392505050565b600082601f830112612ded57612dec612bd1565b5b8135612dfd848260208601612d96565b91505092915050565b600060208284031215612e1c57612e1b612926565b5b600082013567ffffffffffffffff811115612e3a57612e3961292b565b5b612e4684828501612dd8565b91505092915050565b600060208284031215612e6557612e64612926565b5b6000612e7384828501612b7c565b91505092915050565b612e8581612aa6565b82525050565b6000602082019050612ea06000830184612e7c565b92915050565b612eaf816129b5565b8114612eba57600080fd5b50565b600081359050612ecc81612ea6565b92915050565b60008060408385031215612ee957612ee8612926565b5b6000612ef785828601612b7c565b9250506020612f0885828601612ebd565b9150509250929050565b600067ffffffffffffffff821115612f2d57612f2c612cdb565b5b612f3682612a3a565b9050602081019050919050565b6000612f56612f5184612f12565b612d3b565b905082815260208101848484011115612f7257612f71612cd6565b5b612f7d848285612d87565b509392505050565b600082601f830112612f9a57612f99612bd1565b5b8135612faa848260208601612f43565b91505092915050565b60008060008060808587031215612fcd57612fcc612926565b5b6000612fdb87828801612b7c565b9450506020612fec87828801612b7c565b9350506040612ffd87828801612ac7565b925050606085013567ffffffffffffffff81111561301e5761301d61292b565b5b61302a87828801612f85565b91505092959194509250565b600080600080604085870312156130505761304f612926565b5b600085013567ffffffffffffffff81111561306e5761306d61292b565b5b61307a87828801612be0565b9450945050602085013567ffffffffffffffff81111561309d5761309c61292b565b5b6130a987828801612be0565b925092505092959194509250565b600080604083850312156130ce576130cd612926565b5b60006130dc85828601612b7c565b92505060206130ed85828601612b7c565b9150509250929050565b7f4e487b7100000000000000000000000000000000000000000000000000000000600052602260045260246000fd5b6000600282049050600182168061313e57607f821691505b60208210811415613152576131516130f7565b5b50919050565b7f4552433732313a20617070726f76656420717565727920666f72206e6f6e657860008201527f697374656e7420746f6b656e0000000000000000000000000000000000000000602082015250565b60006131b4602c836129f6565b91506131bf82613158565b604082019050919050565b600060208201905081810360008301526131e3816131a7565b9050919050565b7f4552433732313a20617070726f76616c20746f2063757272656e74206f776e6560008201527f7200000000000000000000000000000000000000000000000000000000000000602082015250565b60006132466021836129f6565b9150613251826131ea565b604082019050919050565b6000602082019050818103600083015261327581613239565b9050919050565b7f4552433732313a20617070726f76652063616c6c6572206973206e6f74206f7760008201527f6e6572206e6f7220617070726f76656420666f7220616c6c0000000000000000602082015250565b60006132d86038836129f6565b91506132e38261327c565b604082019050919050565b60006020820190508181036000830152613307816132cb565b9050919050565b600081905092915050565b6000613325838561330e565b9350613332838584612d87565b82840190509392505050565b600061334b828486613319565b91508190509392505050565b7f4552433732313a207472616e736665722063616c6c6572206973206e6f74206f60008201527f776e6572206e6f7220617070726f766564000000000000000000000000000000602082015250565b60006133b36031836129f6565b91506133be82613357565b604082019050919050565b600060208201905081810360008301526133e2816133a6565b9050919050565b7f4552433732313a206f776e657220717565727920666f72206e6f6e657869737460008201527f656e7420746f6b656e0000000000000000000000000000000000000000000000602082015250565b60006134456029836129f6565b9150613450826133e9565b604082019050919050565b6000602082019050818103600083015261347481613438565b9050919050565b7f4552433732313a2062616c616e636520717565727920666f7220746865207a6560008201527f726f206164647265737300000000000000000000000000000000000000000000602082015250565b60006134d7602a836129f6565b91506134e28261347b565b604082019050919050565b60006020820190508181036000830152613506816134ca565b9050919050565b7f596f7520646f206e6f74206f776e207468697320646f6d61696e210000000000600082015250565b6000613543601b836129f6565b915061354e8261350d565b602082019050919050565b6000602082019050818103600083015261357281613536565b9050919050565b7f45524337323155524953746f726167653a2055524920717565727920666f722060008201527f6e6f6e6578697374656e7420746f6b656e000000000000000000000000000000602082015250565b60006135d56031836129f6565b91506135e082613579565b604082019050919050565b60006020820190508181036000830152613604816135c8565b9050919050565b6000613616826129eb565b613620818561330e565b9350613630818560208601612a07565b80840191505092915050565b6000613648828561360b565b9150613654828461360b565b91508190509392505050565b7f4e6f7420656e6f756768204d6174696320706169640000000000000000000000600082015250565b60006136966015836129f6565b91506136a182613660565b602082019050919050565b600060208201905081810360008301526136c581613689565b9050919050565b7f2e00000000000000000000000000000000000000000000000000000000000000600082015250565b600061370260018361330e565b915061370d826136cc565b600182019050919050565b60008190508160005260206000209050919050565b6000815461373a81613126565b613744818661330e565b9450600182166000811461375f5760018114613770576137a3565b60ff198316865281860193506137a3565b61377985613718565b60005b8381101561379b5781548189015260018201915060208101905061377c565b838801955050505b50505092915050565b60006137b9828587613319565b91506137c4826136f5565b91506137d0828461372d565b9150819050949350505050565b60006137e9828661372d565b91506137f5828561360b565b9150613801828461372d565b9150819050949350505050565b7f7b226e616d65223a202200000000000000000000000000000000000000000000600082015250565b6000613844600a8361330e565b915061384f8261380e565b600a82019050919050565b7f222c20226465736372697074696f6e223a20224120646f6d61696e206f6e207460008201527f6865204e696e6a61206e616d652073657276696365222c2022696d616765223a60208201527f2022646174613a696d6167652f7376672b786d6c3b6261736536342c00000000604082015250565b60006138dc605c8361330e565b91506138e78261385a565b605c82019050919050565b7f222c226c656e677468223a220000000000000000000000000000000000000000600082015250565b6000613928600c8361330e565b9150613933826138f2565b600c82019050919050565b7f227d000000000000000000000000000000000000000000000000000000000000600082015250565b600061397460028361330e565b915061397f8261393e565b600282019050919050565b600061399582613837565b91506139a1828661360b565b91506139ac826138cf565b91506139b8828561360b565b91506139c38261391b565b91506139cf828461360b565b91506139da82613967565b9150819050949350505050565b7f646174613a6170706c69636174696f6e2f6a736f6e3b6261736536342c000000600082015250565b6000613a1d601d8361330e565b9150613a28826139e7565b601d82019050919050565b6000613a3e82613a10565b9150613a4a828461360b565b915081905092915050565b60006040820190508181036000830152613a6f8185612a4b565b90508181036020830152613a838184612a4b565b90509392505050565b7f4552433732313a206f70657261746f7220717565727920666f72206e6f6e657860008201527f697374656e7420746f6b656e0000000000000000000000000000000000000000602082015250565b6000613ae8602c836129f6565b9150613af382613a8c565b604082019050919050565b60006020820190508181036000830152613b1781613adb565b9050919050565b7f4552433732313a207472616e736665722066726f6d20696e636f72726563742060008201527f6f776e6572000000000000000000000000000000000000000000000000000000602082015250565b6000613b7a6025836129f6565b9150613b8582613b1e565b604082019050919050565b60006020820190508181036000830152613ba981613b6d565b9050919050565b7f4552433732313a207472616e7366657220746f20746865207a65726f2061646460008201527f7265737300000000000000000000000000000000000000000000000000000000602082015250565b6000613c0c6024836129f6565b9150613c1782613bb0565b604082019050919050565b60006020820190508181036000830152613c3b81613bff565b9050919050565b7f4e487b7100000000000000000000000000000000000000000000000000000000600052601160045260246000fd5b6000613c7c82612aa6565b9150613c8783612aa6565b925082821015613c9a57613c99613c42565b5b828203905092915050565b6000613cb082612aa6565b9150613cbb83612aa6565b9250827fffffffffffffffffffffffffffffffffffffffffffffffffffffffffffffffff03821115613cf057613cef613c42565b5b828201905092915050565b7f4552433732313a20617070726f766520746f2063616c6c657200000000000000600082015250565b6000613d316019836129f6565b9150613d3c82613cfb565b602082019050919050565b60006020820190508181036000830152613d6081613d24565b9050919050565b7f4552433732313a207472616e7366657220746f206e6f6e20455243373231526560008201527f63656976657220696d706c656d656e7465720000000000000000000000000000602082015250565b6000613dc36032836129f6565b9150613dce82613d67565b604082019050919050565b60006020820190508181036000830152613df281613db6565b9050919050565b7f4552433732314d657461646174613a2055524920717565727920666f72206e6f60008201527f6e6578697374656e7420746f6b656e0000000000000000000000000000000000602082015250565b6000613e55602f836129f6565b9150613e6082613df9565b604082019050919050565b60006020820190508181036000830152613e8481613e48565b9050919050565b7f4e487b7100000000000000000000000000000000000000000000000000000000600052603260045260246000fd5b6000613ec582612aa6565b91507fffffffffffffffffffffffffffffffffffffffffffffffffffffffffffffffff821415613ef857613ef7613c42565b5b600182019050919050565b7f4e487b7100000000000000000000000000000000000000000000000000000000600052601260045260246000fd5b6000613f3d82612aa6565b9150613f4883612aa6565b925082613f5857613f57613f03565b5b828204905092915050565b6000613f6e82612aa6565b9150613f7983612aa6565b925082613f8957613f88613f03565b5b828206905092915050565b60006080820190508181036000830152613fae8187612a4b565b90508181036020830152613fc28186612a4b565b90508181036040830152613fd68185612a4b565b9050613fe56060830184612e7c565b95945050505050565b6000613ff982612aa6565b915061400483612aa6565b9250817fffffffffffffffffffffffffffffffffffffffffffffffffffffffffffffffff048311821515161561403d5761403c613c42565b5b828202905092915050565b7f45524337323155524953746f726167653a2055524920736574206f66206e6f6e60008201527f6578697374656e7420746f6b656e000000000000000000000000000000000000602082015250565b60006140a4602e836129f6565b91506140af82614048565b604082019050919050565b600060208201905081810360008301526140d381614097565b9050919050565b600081519050919050565b600082825260208201905092915050565b6000614101826140da565b61410b81856140e5565b935061411b818560208601612a07565b61412481612a3a565b840191505092915050565b60006080820190506141446000830187612b3b565b6141516020830186612b3b565b61415e6040830185612e7c565b818103606083015261417081846140f6565b905095945050505050565b60008151905061418a8161295c565b92915050565b6000602082840312156141a6576141a5612926565b5b60006141b48482850161417b565b91505092915050565b7f4552433732313a206d696e7420746f20746865207a65726f2061646472657373600082015250565b60006141f36020836129f6565b91506141fe826141bd565b602082019050919050565b60006020820190508181036000830152614222816141e6565b9050919050565b7f4552433732313a20746f6b656e20616c7265616479206d696e74656400000000600082015250565b600061425f601c836129f6565b915061426a82614229565b602082019050919050565b6000602082019050818103600083015261428e81614252565b905091905056fe0a2d2d2d2d2d2d2d2d2d2d2d2d2d2d2d2d2d2d2d2d2d2d2d2d2d2d2d2d2d2d2d2d2d2d2d2d2d2d2d2d2d2d2d2d2d2d2d2d2d2d2d2d2d2d2d2d5265676973746572696e672025732e2573206f6e2074686520636f6e7472616374207769746820746f6b656e49442025642d2d2d2d2d2d2d2d2d2d2d2d2d2d2d2d2d2d2d2d2d2d2d2d2d2d2d2d2d2d2d2d2d2d2d2d2d2d2d2d2d2d2d2d2d2d2d2d2d2d2d2d2d2d2d2d0a4142434445464748494a4b4c4d4e4f505152535455565758595a6162636465666768696a6b6c6d6e6f707172737475767778797a303132333435363738392b2fa26469706673582212203a8a61925124b2db2870e72c1c2f10f16945129f540f852a1aa5a57751e380be64736f6c634300080a00333c73766720786d6c6e733d22687474703a2f2f7777772e77332e6f72672f323030302f737667222077696474683d2232373022206865696768743d22323730222066696c6c3d226e6f6e65223e3c706174682066696c6c3d2275726c282342292220643d224d302030683237307632373048307a222f3e3c646566733e3c66696c7465722069643d22412220636f6c6f722d696e746572706f6c6174696f6e2d66696c746572733d2273524742222066696c746572556e6974733d227573657253706163654f6e55736522206865696768743d22323730222077696474683d22323730223e3c666544726f70536861646f772064783d2230222064793d22312220737464446576696174696f6e3d22322220666c6f6f642d6f7061636974793d222e323235222077696474683d223230302522206865696768743d2232303025222f3e3c2f66696c7465723e3c2f646566733e3c7061746820643d224d37322e3836332034322e393439632d2e3636382d2e3338372d312e3432362d2e35392d322e3139372d2e3539732d312e3532392e3230342d322e3139372e35396c2d31302e30383120362e3033322d362e383520332e3933342d31302e30383120362e303332632d2e3636382e3338372d312e3432362e35392d322e3139372e3539732d312e3532392d2e3230342d322e3139372d2e35396c2d382e3031332d342e37323161342e353220342e35322030203020312d312e3538392d312e363136632d2e3338342d2e3636352d2e3539342d312e3431382d2e3630382d322e313837762d392e3331632d2e3031332d2e3737352e3138352d312e3533382e3537322d322e32303861342e323520342e323520302030203120312e3632352d312e3539356c372e3838342d342e3539632e3636382d2e33383720312e3432362d2e353920322e3139372d2e353973312e3532392e32303420322e3139372e35396c372e38383420342e353961342e353220342e353220302030203120312e35383920312e363136632e3338342e3636352e35393420312e3431382e36303820322e31383776362e3033326c362e38352d342e303635762d362e303332632e3031332d2e3737352d2e3138352d312e3533382d2e3537322d322e32303861342e323520342e32352030203020302d312e3632352d312e3539354c34312e3435362032342e3539632d2e3636382d2e3338372d312e3432362d2e35392d322e3139372d2e3539732d312e3532392e3230342d322e3139372e35396c2d31342e38363420382e36353561342e323520342e32352030203020302d312e36323520312e353935632d2e3338372e36372d2e35383520312e3433342d2e35373220322e3230387631372e343431632d2e3031332e3737352e31383520312e3533382e35373220322e32303861342e323520342e323520302030203020312e36323520312e3539356c31342e38363420382e363535632e3636382e33383720312e3432362e353920322e3139372e353973312e3532392d2e32303420322e3139372d2e35396c31302e3038312d352e39303120362e38352d342e3036352031302e3038312d352e393031632e3636382d2e33383720312e3432362d2e353920322e3139372d2e353973312e3532392e32303420322e3139372e35396c372e38383420342e353961342e353220342e353220302030203120312e35383920312e363136632e3338342e3636352e35393420312e3431382e36303820322e31383776392e333131632e3031332e3737352d2e31383520312e3533382d2e35373220322e32303861342e323520342e32352030203020312d312e36323520312e3539356c2d372e38383420342e373231632d2e3636382e3338372d312e3432362e35392d322e3139372e3539732d312e3532392d2e3230342d322e3139372d2e35396c2d372e3838342d342e353961342e353220342e35322030203020312d312e3538392d312e363136632d2e3338352d2e3636352d2e3539342d312e3431382d2e3630382d322e313837762d362e3033326c2d362e383520342e30363576362e303332632d2e3031332e3737352e31383520312e3533382e35373220322e32303861342e323520342e323520302030203020312e36323520312e3539356c31342e38363420382e363535632e3636382e33383720312e3432362e353920322e3139372e353973312e3532392d2e32303420322e3139372d2e35396c31342e3836342d382e363535632e3635372d2e33393420312e3230342d2e393520312e3538392d312e363136732e3539342d312e3431382e3630392d322e3138375635352e353338632e3031332d2e3737352d2e3138352d312e3533382d2e3537322d322e32303861342e323520342e32352030203020302d312e3632352d312e3539356c2d31342e3939332d382e3738367a222066696c6c3d2223666666222f3e3c646566733e3c6c696e6561724772616469656e742069643d2242222078313d2230222079313d2230222078323d22323730222079323d2232373022206772616469656e74556e6974733d227573657253706163654f6e557365223e3c73746f702073746f702d636f6c6f723d2223636235656565222f3e3c73746f70206f66667365743d2231222073746f702d636f6c6f723d2223306364376534222073746f702d6f7061636974793d222e3939222f3e3c2f6c696e6561724772616469656e743e3c2f646566733e3c7465787420783d2233322e352220793d223233312220666f6e742d73697a653d223237222066696c6c3d2223666666222066696c7465723d2275726c282341292220666f6e742d66616d696c793d22506c7573204a616b617274612053616e732c44656a6156752053616e732c4e6f746f20436f6c6f7220456d6f6a692c4170706c6520436f6c6f7220456d6f6a692c73616e732d73657269662220666f6e742d7765696768743d22626f6c64223e",
  "linkReferences": {},
  "deployedLinkReferences": {}
}